:1000000018C032C031C030C02EC32EC02DC02CC08D
:100010002BC02BC029C028C027C026C025C024C0A3
:1000200023C022C021C0003F065B4F666D7D077F65
:100030006F0011241FBECFE5D4E0DEBFCDBF10E0BE
:10004000A0E6B0E0EEEAFAE002C005900D92A2361A
:10005000B107D9F710E0A2E6B0E001C01D92A637C3
:10006000B107E1F732D321C5CBCF1F920F920FB664
:100070000F9211241F932F933F934F935F936F938E
:100080007F938F939F93EF93FF93CF93DF9300D052
:100090000F92CDB7DEB780917200882F90E080314B
:1000A000910509F48DC0813191053CF4009771F000
:1000B0008130910509F44DC074C18131910509F475
:1000C000D7C08231910509F422C16BC180917400BF
:1000D0008823A9F480916D009AE0692FDAD4882FE3
:1000E00090E00196982F20916D0081E02A3008F46D
:1000F00080E0989F802D11248093750049C18091E4
:100100007400813051F480916D009AE0692FC1D460
:10011000892F8F5F809375003BC18091740082307E
:1001200049F480916C009AE0692FB3D48F5F80937B
:1001300075002EC180917400833009F029C180912F
:100140006C009AE0692FA5D4892F8F5F809375008A
:100150001FC180917400882349F480916C009AE05B
:10016000692F97D48F5F8093750014C180917400BC
:10017000813051F480916C009AE0692F8AD4892FE4
:100180008F5F8093750006C180917400823049F4BE
:1001900080916B009AE0692F7CD48F5F809375000B
:1001A000F9C080917400833009F0F4C080916B0035
:1001B0009AE0692F6ED4892F8F5F80937500EAC013
:1001C000809174008823F1F480916000837021E0B5
:1001D000882309F420E080916D009AE0692F59D4BA
:1001E000882F90E00196289F902D112420916D007A
:1001F00081E02A3008F480E0989F802D11248093BC
:100200007500CAC0809174008130B1F480916000A3
:10021000837021E0882309F420E080916D009AE04A
:10022000692F37D4892F882F90E00196289F802D41
:10023000112480937500B0C080917400823049F41D
:1002400080916C009AE0692F24D48F5F80937500B1
:10025000A3C080917400833009F09EC080916C002F
:100260009AE0692F16D4892F8F5F8093750094C010
:1002700080917400882349F480916D009AE0692F81
:1002800008D48F5F8093750089C08091740081309D
:1002900051F480916D009AE0692FFBD3892F8F5F15
:1002A000809375007BC0809174008230A9F48091A6
:1002B0006000837021E0882309F420E080916C00C5
:1002C0009AE0692FE6D3882F90E00196289F802D31
:1002D00011248093750062C080917400833009F00E
:1002E0005DC080916000837021E0882309F420E0E4
:1002F00080916C009AE0692FCCD3892F882F90E0F1
:100300000196289F802D11248093750047C080910D
:100310007400882319F41092750042C08091740013
:10032000813019F4109275003BC0809174008230C6
:10033000A9F480916000837021E0823008F020E011
:1003400080916B009AE0692FA4D3882F90E00196EA
:10035000289F802D11248093750022C08091740005
:100360008330F1F480916000837021E0823008F0E6
:1003700020E080916B009AE0692F8BD3892F882F22
:1003800090E00196289F802D11248093750008C06D
:10039000000007C0000005C0000003C0000001C04D
:1003A000000088E390E028E330E0F9012081207F1D
:1003B000FC01208382E390E020916000222F30E056
:1003C0002870307022953295307F3227207F322777
:1003D000322F4091740021E0413009F020E0329F3B
:1003E000202D1124422F20917500222F30E02A5D0C
:1003F0003F4F3A83298329813A81F90114911B8364
:100400002B81242B2095FC01208388E390E028E3B6
:1004100030E0F9012081622F20917400422F50E0DA
:1004200021E030E0042E02C0220F331F0A94E2F7CD
:10043000262BFC012083809174008F5F80937400D1
:100440008091740083708093740083E390E0FC01DA
:100450008081882F90E081709070009761F5809185
:10046000630090916400F3E0883E9F07A0F48091C0
:100470006300909164000196909364008093630000
:1004800080916300909164008330910588F181E050
:10049000809362002DC0809163009091640023E0FE
:1004A000883E920729F580916200843009F183E04B
:1004B000809362001DC0809163009091640083303E
:1004C000910560F08091630090916400E3E0883EC4
:1004D0009E0720F482E08093620006C08091620053
:1004E000823011F01092620010926400109263004A
:1004F00083E390E0FC018081882F90E0827090700F
:10050000009761F58091660090916700F3E0883E66
:100510009F07A0F4809166009091670001969093E8
:100520006700809366008091660090916700833039
:10053000910588F181E0809365002DC0809166006F
:100540009091670023E0883E920729F5809165002D
:10055000843009F183E0809365001DC080916600BE
:10056000909167008330910560F0809166009091D2
:100570006700E3E0883E9E0720F482E080936500F8
:1005800006C080916500823011F0109265001092D3
:1005900067001092660083E390E0FC018081882F61
:1005A00090E084709070009761F58091690090915F
:1005B0006A00F3E0883E9F07A0F480916900909163
:1005C0006A00019690936A008093690080916900A7
:1005D00090916A008330910588F181E080936800F2
:1005E0002DC08091690090916A0023E0883E9207B7
:1005F00029F580916800843009F183E080936800D8
:100600001DC08091690090916A008330910560F06F
:100610008091690090916A00E3E0883E9E0720F493
:1006200082E08093680006C080916800823011F0FB
:100630001092680010926A00109269002396DEBF43
:10064000CDBFDF91CF91FF91EF919F918F917F91DE
:100650006F915F914F913F912F911F910F900FBE1E
:100660000F901F9018951F920F920FB60F921124A2
:100670008F939F93CF93DF93CDB7DEB7F89480919C
:1006800060008F5F80936000809160008F70809326
:1006900060009091600081E0992309F080E08093F0
:1006A000710080916000982F937081E0992309F088
:1006B00080E0809373007894DF91CF919F918F9128
:1006C0000F900FBE0F901F901895CF93DF93CDB76B
:1006D000DEB781E390E02FEFFC01208382E390E01E
:1006E000FC01108287E390E02FEFFC01208388E378
:1006F00090E0FC01108284E390E0FC01108285E32D
:1007000090E02FE1FC01208383E590E023E0FC01F1
:10071000208382E490E028E0FC01208385E490E0DF
:1007200022E0FC01208384E490E0FC01108283E459
:1007300090E0FC01108289E590E021E4FC01208337
:10074000789401C0000080917300882309F449C1A6
:100750001092730080917200882F90E08031910593
:1007600009F44BC08131910534F4009769F0813070
:10077000910539F136C18131910509F48EC082317C
:10078000910509F4DAC02DC180916500823031F401
:1007900081E080937200109265001AC1809165001B
:1007A000833009F015C184E180936E0080E180936D
:1007B000720084E0809365001092620010926800DD
:1007C00007C180916500823029F410927200109266
:1007D000650000C180916500833009F0FBC084E1B1
:1007E00080936E0080E18093720084E080936500C6
:1007F0001092620010926800EDC080916500823016
:1008000049F484E180936E0081E18093720010923C
:100810006500E2C080916500833021F080916E0018
:10082000882351F41092720084E080936500109246
:10083000620010926800D0C080916200823049F45A
:1008400084E180936E0081E080936F0010926200DB
:10085000C3C080916200833039F484E180936E00DC
:1008600081E080936F00B8C080916800823049F4C5
:1008700084E180936E008FEF80936F001092680088
:10088000ABC080916800833009F0A6C084E18093FA
:100890006E008FEF80936F009FC080916500823063
:1008A00049F484E180936E0082E18093720010929B
:1008B000650094C080916500833021F080916E00C6
:1008C000882351F41092720084E0809365001092A6
:1008D00062001092680082C080916200823049F408
:1008E00084E180936E0081E080937000109262003A
:1008F00075C080916200833039F484E180936E008A
:1009000081E0809370006AC080916800823049F471
:1009100084E180936E008FEF8093700010926800E6
:100920005DC080916800833009F058C084E18093F5
:100930006E008FEF8093700051C08091650082300F
:1009400049F484E180936E0080E1809372001092FC
:10095000650046C080916500833021F080916E0073
:10096000882351F41092720084E080936500109205
:1009700062001092680034C080916200823041F4BD
:1009800084E180936E0010926B001092620028C088
:1009900080916200833031F484E180936E00109284
:1009A0006B001EC080916800823041F484E1809326
:1009B0006E0010926B001092680012C08091680067
:1009C000833071F484E180936E0010926B0008C054
:1009D000000007C0000005C0000003C0000001C007
:1009E0000000809171008823D1F080916B008B33DF
:1009F00030F480916B008F5F80936B0005C0109284
:100A00006B0081E08093700080916E00882329F054
:100A100080916E00815080936E00109271008091E1
:100A20007000882309F190916C0080917000890F0B
:100A300080936C0080916C008C3341F480916F0046
:100A40008F5F80936F0010926C000CC080916C00DF
:100A50008D3340F080916F00815080936F008BE365
:100A600080936C001092700080916F00882309F4CD
:100A700069CE90916D0080916F00890F80936D0019
:100A800080916D00883110F010926D0010926F000F
:100A900059CE991B79E004C0991F961708F0961B50
:0E0AA000881F7A95C9F780950895F894FFCFC6
:020AAE00010045
:00000001FF
