:10000000D0C0FAC0E9C070C1E7C0E6C0E5C0E4C036
:10001000E3C0E2C0E1C0E0C0DFC0DEC0DDC0DCC0E4
:10002000DBC0DAC0D9C0E2C1EFC1F3C102C211C264
:1000300013C217C21DC223C230C23BC24453333263
:100040003331004448542D3131002020204865E3ED
:1000500069BBC700000020A86FBD65E369BB6FBA2C
:10006000000020204269B3BF6F706FBA00002020EB
:10007000202043657065E3610000202020AB65BF50
:10008000B36570B400002020A860C7BFBDB8E5C745
:1000900000002020204379B26FBF61000000A865F6
:1000A00070657869E3200043B369BF20C763BA2055
:1000B000005465BCBD20C763BA2000AB616320E378
:1000C00065BDC42000AB616320BD69C02000AA6F7C
:1000D00070BC61BF00AC61B2BB6FBD004263BF6169
:1000E000B361B9005465BCBE657061BF79706100D1
:1000F000A942494D4B0042A54D4B00B163BA706116
:10010000B36963BFC4004365BD636F7000A8A800F6
:10011000E0A800A079E3B8BBC4BDB8BA2000E06194
:10012000BF6100AB61630020202020202020202020
:100130000001010206141717FFFF013E2020000FE7
:100140000F0F0F0F0F0F0F1E1E1E1E1E1E1E1E1F37
:100150001F0000000000000000000000001F1F1F23
:100160001F000000001F1F1E1E000000001E1E0FAB
:100170000F000000000F0F0000000000000F0F2014
:10018000742D20200052482D2020002031322020C4
:1001900000203234202000202D20002020002020AC
:1001A000000011241FBECFE5D4E0DEBFCDBF10E0BC
:1001B000A0E6B0E0E8EBFFE102C005900D92A437A5
:1001C000B107D9F710E0A4E7B0E001C01D92AE3945
:1001D000B107E1F715D5EECE13CF1BBC1ABC80E1F9
:1001E0008FBD8AE08EBD8091000090910100C0DE3D
:1001F0009BBD8ABDC19A08951F920F920FB60F92B0
:1002000011242F933F934F935F936F937F938F931B
:100210009F93AF93BF93EF93FF938FE890E0EDD35D
:1002200080918F00882399F580917E008A3048F470
:100230008FE890E0FBD38FE890E017D48FE890E050
:100240008ED49091940080919100981769F49091C8
:10025000930080919000981739F480918000882352
:1002600019F081E08093790090919700809191003E
:10027000981769F49091960080919000981739F43E
:1002800080918100882319F081E08093790080912A
:100290007E00803148F080916000882329F08091B1
:1002A000600081508093600080918200813059F419
:1002B00080918F0065E03BDE992329F4A8958AE8B8
:1002C00090E0AAD2A895FF91EF91BF91AF919F9135
:1002D0008F917F916F915F914F913F912F910F90EF
:1002E0000FBE0F901F9018951F920F920FB60F928E
:1002F00011242F933F934F935F936F937F938F932B
:100300009F93AF93BF93EF93FF9314BC87E690E066
:1003100031D28DE690E02ED281E690E02BD2809112
:100320007D008F5F80937D0080917D008F7780932B
:100330007D0080917D00882369F480917A00882374
:1003400049F080917E00843028F480917A008150B9
:1003500080937A0080917D00877080937C008091EB
:100360007900882331F180917D00877011F520910B
:10037000760030917700809174009091750001971C
:10038000281739073CF42F5F3F4F309377002093B5
:10039000760004C01092770010927600809176006B
:1003A00090917700880F991F80509040E1DD9BBDB0
:1003B0008ABDFF91EF91BF91AF919F918F917F91F6
:1003C0006F915F914F913F912F910F900FBE0F90C2
:1003D0001F901895CF93C62FE82FF0E0EB30F10572
:1003E00008F077C0ED5EFF4F80E00994C3D280E251
:1003F00061D280E25FD280E25DD281E06C2FBAD21E
:1004000080E258D280E212C0B5D280E053D282E0BE
:1004100048C0B0D280E24ED28FEF4CD280E24AD2B6
:1004200081E06C2FA7D280E245D28FEF43D280E2E9
:100430004FC0A0D286E03ED284E03CD281E03AD2E6
:1004400081E06C2F97D280E035D283E033D283E015
:100450003FC090D286E02FC08DD280E02BD283E0C7
:1004600012C088D280E026D284E024D285E027C062
:1004700081D280E01FD284E01DD285E014C07AD200
:1004800082E018D282E016D281E014D281E06C2F93
:1004900071D280E20FD280E219C06CD280E00AD221
:1004A00084E008D281E006D281E06C2F63D280E044
:1004B0000BC060D280E0FED184E0FCD181E0FAD1B3
:1004C00081E06C2F57D287E0F5D183E0F3D181E052
:1004D000F1D1CF910895CF93DF93C0919100809196
:1004E0008900882339F0CC2321F0CD3018F0CC508E
:1004F00001C0CCE08C2F6AE01ADD282F30E02F5F9E
:100500003F4F81E0CA3008F480E0829F802D1124A3
:1005100060E060DFDAE08C2F6D2F09DD892F8F5FBF
:1005200063E058DF809190006D2F01DD8F5F67E001
:1005300051DF809190006D2FFADC892F8F5F4ADFA9
:1005400080E066E017D280918F0080FF06C0809126
:100550008000882321F08DEE03C080E201C08FE689
:10056000A9D181E066E006D280918F0080FF06C0AD
:1005700080918100882321F08DEE03C080E201C0CC
:100580008FE698D180E06EE0F5D180918F002091C8
:100590008F006AE0CCDC90E0C09631E02A3008F4AD
:1005A00030E0389F802D112490918F009A3010F404
:1005B00090E201C090E0890F7DD180918F006AE0C8
:1005C000B6DC892F805D76D180918900882389F0FF
:1005D00081E06EE0CFD1809191008D3020F4809148
:1005E0009100882319F48DE091E002C080E191E050
:1005F000DAD1DF91CF910895FC0180916D008230B6
:1006000019F410926D0018C080916100823029F4B5
:10061000109261008081815011C080916D00833003
:1006200021F080916D00843071F484E080936D003E
:1006300080917D00882319F480818F5F80838CE313
:1006400080936000089580916100833021F0809153
:100650006100843069F484E08093610080917D00C2
:10066000882319F48081815080838CE3809360001B
:100670000895CF92EF920F93FC01DB01809160000F
:10068000882321F4108281E08C9316C0809167004A
:10069000823021F410926700E0820AC080916700E6
:1006A000833069F484E080936700C08281E08C939A
:1006B0008091840080937A008CE3809360004130C5
:1006C00009F580916D00823021F410926D00208335
:1006D00007C080916100823029F41092610000838C
:1006E0004C930DC080916D00833021F080916100AA
:1006F000833041F484E080936D00809361008CE34B
:10070000809360000F91EF90CF900895CF92DF9289
:10071000EF92FF920F931F93CF93DF930F92CDB77A
:10072000DEB730E8E32E30E0F32ECC24DD24E1996F
:10073000FECFF70161917F0186010E5D1E4FC8015A
:1007400069830EDC6981681721F0E199FECFC80149
:1007500014DC0894C11CD11CFAE0CF16D10439F77F
:100760000F90DF91CF911F910F91FF90EF90DF904D
:10077000CF900895FC01A181B2812C9130E00380DB
:1007800002C0359527950A94E2F78481958120FD72
:1007900014C08F3F910540F4019695838483833084
:1007A0009105C0F081E007C08F3F910599F48081E9
:1007B000843081F083E08083089503978C3F910516
:1007C00018F482E0808304C08081823009F01082B6
:1007D000158214820895B89AC0988FE39CE9019716
:1007E000F1F700C00000C09A0895B898B099FECF04
:1007F000B09BFECFB099FECF089598E080E0B09B0B
:10080000FECF20E52A95F1F7880FB0998160B09965
:10081000FECF9150A1F70895CF93DF93EC01DBDF7A
:10082000CE01E3DFCE01E9DF8A83CE01E6DF8B83F1
:10083000CE01E3DF8883CE01E0DF8983CE01DDDFF7
:100840008C839A812B8130E0290F311D68817727B5
:1008500067FD7095260F371F9981290F311D482F8D
:1008600050E081E02417350709F480E0DF91CF9153
:100870000895919A95E89A95F1F7000092B39F70C8
:1008800092BB92B38295807F892B82BB919885E839
:100890008A95F1F700000895CF93C82F82958F7045
:1008A000662311F4909801C0909AE3DF8C2FE1DF6A
:1008B000CF91089561E0F0DF0895899A889A8FE3D7
:1008C0009CE90197F1F700C0000083E0D2DF8FE0E0
:1008D00097E20197F1F700C0000083E0CADF87ECE0
:1008E00090E00197F1F700C0000083E0C2DF8FECD9
:1008F00097E00197F1F700C0000082E0BADF8FECCB
:1009000097E00197F1F700C000008CE260E0C4DFDF
:100910008FEC97E00197F1F700C000008CE060E0F9
:10092000BBDF8FEC97E00197F1F700C0000081E09A
:1009300060E0B2DF8FEC97E00197F1F700C00000B4
:1009400086E060E0A9DF8FEC97E00197F1F700C047
:10095000000008958FEC97E00197F1F700C00000C8
:1009600081E060E099DF8FE99FE00197F1F700C037
:10097000000008958295880F880F807C680F862F6D
:10098000806860E089DF0895886060E085DF089511
:10099000CF93DF93EC0101C08DDF89918823E1F7CC
:1009A000DF91CF910895CF93DF93EC01FE01219663
:1009B0008491882311F07EDFF9CFDF91CF910895E4
:1009C000982F92959F70990F292F220F220F290F90
:1009D0008F70820F08956AE0AADA8295807F890F6E
:1009E0000895DCD080EDE3D08EE0E1D080E2DFD06E
:1009F00088E0DDD0D9D080E00895CF93DF93EC017B
:100A0000CDD080EDD4D080E0D2D0CED0C7D081ED93
:100A1000CED0E8D0D5DF8883E5D0D2DF8983E9D096
:100A2000CFDF8A83C1D0DF91CF910895CF93DF9339
:100A3000EC01F894B3D080EDBAD083E0B8D0B4D054
:100A4000ADD081EDB4D0CED0BBDF8987CBD0B8DFBD
:100A50008A87C8D08F77B4DF8B87CBD0B1DF8C8704
:100A6000A3D07894DF91CF910895CF93DF93EC01D9
:100A7000F89494D080ED9BD088E099D095D08ED01A
:100A800081ED95D0AFD09CDF8C83B3D099DF8D837F
:100A90008BD084D080ED8BD08BE089D085D07ED078
:100AA00081ED85D09FD08CDF8F83A3D089DF8887AD
:100AB0007BD07894DF91CF910895CF93DF93EC01B1
:100AC000F8946CD080ED73D080E071D0888183DFA2
:100AD0006ED0898180DF6BD08A817DDF68D064D061
:100AE0007894DF91CF910895CF93DF93EC01F89440
:100AF00055D080ED5CD083E05AD089856CDF57D02B
:100B00008A8569DF54D08B8566DF806850D08C85FC
:100B100062DF4DD049D07894DF91CF910895CF9383
:100B2000DF93EC01F8943AD080ED41D088E03FD0DB
:100B30008C8151DF3CD08D814EDF39D035D02ED025
:100B400080ED35D08BE033D08F8145DF30D0888584
:100B500042DF2DD029D07894DF91CF910895CF93A3
:100B6000DF93EC011BD080ED22D081E120D01CD09E
:100B700015D081ED1CD036D08D873BD082958695DF
:100B80008695837099E1899F802D11248E870CD0E2
:100B9000DF91CF9108958FEF80B9089584EA86BFE1
:100BA00006B607FEFDCF089584E986BF089583B990
:100BB00084E886BF06B607FEFDCF08951F93CF9346
:100BC000DF930F92CDB7DEB7182F6983E7DF8981F6
:100BD000EEDF812FECDF84E986BF0F90DF91CF91AC
:100BE0001F91089584EC86BF06B607FEFDCF83B142
:100BF000089584E886BF06B607FEFDCF83B1089549
:100C0000CF93DF93CDB7DEB7A6970FB6F894DEBFCC
:100C10000FBECDBF1C821B821A8288E181BD81B5C7
:100C20008F6081BDA89583EF81BB8FE087BB14BA2D
:100C300087E085BB83E085BF80E48BBF86E085BD10
:100C400084EF83BD80E889BF83E487B986EC86B9E9
:100C500081E88FBD89E08EBD8FEF90E09BBD8ABD9E
:100C600050E8E52E50E0F52E00E010E0A895E1995F
:100C7000FECFC8018E5D9E4F73D9D7018C93F801CA
:100C8000EF5CFE4FE491E81708F41C920F5F1F4FD2
:100C90000894E11CF11C0A30110541F78091840091
:100CA00080937A00809182008983E199FECF80E26F
:100CB00091E05ED9909375008093740004B603FCB4
:100CC00044C0A8958FEF90E7A2E081509040A040EB
:100CD000E1F700C00000F1DDAFE1BEE41197F1F7EC
:100CE00000C0000037DEEFE1FEE43197F1F700C00D
:100CF000000080E460E0D0DDA89520E030E014C082
:100D0000F701E00FF11F849161E02DA33EA3C4DD44
:100D10000F5F1F4F2DA13EA10830110589F7285FF5
:100D20003F4F2034310549F000E010E04FE3E42E5E
:100D300041E0F42EE20EF31EE3CF80918200813079
:100D400051F48AE890E068DD05C01092820084B713
:100D5000877F84BFA895A8951EDF43DE8FE890E0CB
:100D60004CDE8FE890E062DE8FE890E07EDE8FE878
:100D700090E0F5DE7894FF242FE8A22E20E0B22E3A
:100D800080917C00882309F0D0C8A89510917E003E
:100D9000123309F471C41333A0F5133109F4B0C24E
:100DA0001431B0F4133009F430C2143038F4113077
:100DB00009F4DCC0123008F0C2C15DC0113109F481
:100DC00075C2123108F090C2103109F0BBC64DC295
:100DD000123209F459C3133250F4103209F4CFC25D
:100DE000113208F0ACC3143109F0ACC698C210330C
:100DF00009F4FFC3113308F01FC4133209F0A2C66F
:100E0000DAC2103609F441C51136C8F4123409F4B7
:100E1000A9C4133450F4103409F460C4113408F038
:100E200080C4143309F08EC633C4103509F4DAC413
:100E3000113509F4F6C4143409F084C6A3C4143679
:100E400009F4C8C5153638F4123609F466C51336E8
:100E500008F091C532C5113709F40AC6123720F4DB
:100E6000103709F06FC6EBC5123709F435C61438D0
:100E700009F068C682C380916700823051F41092F5
:100E8000670081E080937E009091840090937A00C7
:100E90000BC080916700833049F484E08093670041
:100EA00080E180937E0081E080937B0080917A00D6
:100EB0008823D1F480918300982F9150923040F490
:100EC0008091840080937A0081E080937E000AC044
:100ED000833051F48091840080937A0082E0809383
:100EE0007E0081E080937B0040918F0080918400A0
:100EF00090E050E022273327281B390B281B390BA1
:100F0000245C3F4F4217530729F4809183008430BB
:100F1000D9F40EC040918F0050E02CE330E0281B44
:100F2000390B4217530781F480918300853021F4F7
:100F300081E080937E0006C0863031F482E08093A9
:100F40007E0081E080937B0080917900882339F0D6
:100F500044D981E080937B0083E080937E00809180
:100F60007B00882309F09EC1B6DA96C180916700A4
:100F7000823059F41092670080937E008091840043
:100F800080937A0010937B000DC0809167008330BE
:100F900049F484E08093670080E180937E0081E0E3
:100FA00080937B0080917A008823B9F4809183003C
:100FB000813041F49091840090937A0092E0909374
:100FC0007E0009C0823049F48091840080937A00C9
:100FD00010927E0081E080937B0020918F0030E0B2
:100FE000409184008CE390E0841B91092817390715
:100FF00021F480918300843031F08091830083302C
:1010000011F0863031F482E080937E0081E080939D
:101010007B0080918F00882349F480918300853084
:1010200029F410927E0081E080937B00809179000A
:10103000882339F0D2D881E080937B0083E08093CD
:101040007E0080917B00882309F079C58091820021
:101050008130E9F580E062E08DDC8FE791E0A3DC90
:1010600080918A001AE0612F6ED7805D23DC809129
:101070008A00612F68D7892F805D1CDC8EE21ADC24
:1010800080918B00612F53D7805D14DC8FED12DCD3
:1010900083E410DC81E062E06DDC85E891E083DCD4
:1010A00080918C00612F43D7805D04DC80918C009F
:1010B000612F3DD7892F805DFDDB8EE2FBDB8091C8
:1010C0008D00612F34D7805DF5DB85E236C0882343
:1010D00009F038C562E04EDC84EE90E064DC81E02B
:1010E00064E048DC80919C0087FF07C08DE2E2DB72
:1010F00080919C00819580939C0080919C001AE0D7
:10110000612F15D7805DD6DB80919C00612F0FD7B2
:10111000892F805DCFDB8EE2CDDB80919D00612F3A
:1011200006D7805DC7DB80919D00612F00D7892F96
:10113000805DC0DB8FEDBEDB83E4BCDB03C580914B
:101140006700823049F41092670010927E0080910F
:10115000840080937A000AC080916700833049F44C
:1011600084E08093670080E180937E0081E080933B
:101170007B0080917A008823B1F4809183008130D4
:1011800039F49091840090937A0010927E0009C007
:10119000833049F48091840080937A0010927E001D
:1011A00081E080937B0080918F00882331F08091D3
:1011B0008300823011F0853029F410927E0081E0A6
:1011C00080937B0080917900882339F006D881E0F4
:1011D00080937B0083E080937E0080917B00882356
:1011E00009F0ADC462E0C6DB2091980030E02150E8
:1011F0003040C901880F991F820F931F880F991FD4
:10120000880F991F865B9F4F21C0809167008230B5
:1012100019F41092670007C080916700833071F461
:1012200084E08093670010927E0080918400809318
:101230007A0081E080937B001092790080917B009E
:10124000882331F464E096DB8CED90E0ACDB7AC46B
:10125000109277001092760081E88FBD89E08EBDF4
:101260008FEF90E09BBD8ABD6AC48EE790E06BE78C
:1012700070E041E020E700E2B1E1EB2ECC24F9D9A7
:1012800080917B00882369F460E074DB8BE391E05C
:101290008ADB83E291E087DBAFE8AA2EA0E0BA2EDA
:1012A00051C434DA57DB10927B00F6CF8EE790E022
:1012B0006BE770E040E021E101E1E2E1EE2EF0E1D8
:1012C000CF2ED7D9CE01049697D980917B00882361
:1012D00009F035C460E04EDB80E2ECDA80E063E0E8
:1012E00049DB83E291E0C9C08EE790E06BE770E0F4
:1012F00040E022E102E133E1E32E50E1C52E3DC2A0
:101300008EE790E06BE770E040E023E103E1B4E1B9
:10131000EB2E10E1C12EADD9CE01029631C28EE77F
:1013200090E06BE770E040E024E104E1F1E1EF2EB2
:10133000A0E1CA2E9ED989E890E05ED9809189000B
:101340008B3F20F081E08093890004C0823010F050
:101350001092890080917B00882309F0F0C381E01E
:1013600063E008DB8EEC90E01EDB8091890088232F
:1013700019F08BE891E06ACF81E991E067CF8EE7C1
:1013800090E06BE770E041E020E100E3E3E2EE2E65
:10139000CC246FD980917B00882309F067C360E07B
:1013A000E9DA8BE391E0FFDA8EE191E0FCDA81E0AB
:1013B00063E0E0DAC7C38EE790E06BE770E040E0FF
:1013C00023E203E232E2E32E50E2C52E52D989E94C
:1013D00090E012D980919B00882331F420919A00EB
:1013E00081E090E0223011F080E090E0382F809191
:1013F0009A00823011F022E001C020E080919A0032
:10140000843071F080919A00863051F080919A007A
:10141000893031F040919A0081E090E04B3011F436
:1014200080E090E0932F935E920F980F9093780056
:1014300080919900882331F09091990080917800F3
:10144000891710F481E009C090919900809178008B
:10145000981729F4809178008150809399008091A9
:101460007B00882309F0C1C060E084DA80E222DAE0
:1014700080E063E07FDA8EE191E095DA81E060E080
:1014800079DA8BE391E0E2CE8EE790E06BE770E0F3
:1014900040E022E202E2B1E2EB2E10E2C12EE9D8F6
:1014A0008AE990E0A9D880919A00882311F48CE011
:1014B00005C080919A008D3018F081E080939A00E9
:1014C00080919B00882331F420919A0081E090E084
:1014D000223011F080E090E0382F80919A00823025
:1014E00011F022E001C020E080919A00843071F078
:1014F00080919A00863051F080919A00893031F0C5
:1015000040919A0081E090E04B3011F480E090E04F
:10151000932F935E920F980F90937800809199008B
:10152000882339F09091990080917800981708F4F9
:1015300057C08091780081508093990051C08EE708
:1015400090E06BE770E040E021E201E2F4E8EF2E8A
:10155000A0E2CA2E8ED88BE990E04ED880919B00F5
:101560008B3F20F083E680939B003AC080919B00E4
:101570008436B0F110929B0033C08EE790E06BE7A9
:1015800070E040E024E804E853E2E52EE0E2CE2EED
:1015900070D888E990E030D880919800882311F4C1
:1015A00087E005C080919800883018F081E0809332
:1015B000980081E062E0DED92091980030E021506F
:1015C0003040C901880F991F820F931F880F991F00
:1015D000880F991F865B9F4FE6D987E291E0E3D998
:1015E00080917B00882309F4ADC28FE890E07CDA1B
:1015F000A6C28EE790E06BE770E041E020E200E4F5
:1016000011E3E12ECC2435D880917B00882359F456
:1016100060E0B0D98BE391E0C6D983E191E0C3D912
:1016200081E348D904C072D895D910927B00B2E901
:10163000AB2EB0E0BB2E86C28EE790E06BE770E089
:1016400040E021E301E3F2E3EF2EA0E3CA2E11D83C
:10165000CE010496D1D780917B00882309F06FC218
:1016600060E088D980E226D980E063E083D983E115
:1016700091E099D981E374C08EE790E06BE770E068
:1016800040E022E302E354E3E52EE0E3CE2E75C012
:101690008EE790E06BE770E040E024E304E311E3C1
:1016A000E12E30E3C32EE5D780E890E0A5D7809106
:1016B00080008B3F20F081E08093800004C0823066
:1016C00010F01092800080917B00882309F037C2CF
:1016D00081E063E04FD98091800079C08EE790E08F
:1016E0006BE770E041E020E300E5B1E4EB2ECC24B1
:1016F000C0D780917B00882359F460E03BD98BE30D
:1017000091E051D983E191E04ED982E3D3D804C06E
:10171000FDD720D910927B00A5E9AA2EA0E0BA2E11
:1017200011C28EE790E06BE770E040E021E401E455
:10173000E2E4EE2EF0E4CF2E9CD7CE0104965CD7E7
:1017400080917B00882309F0FAC160E013D980E220
:10175000B1D880E063E00ED983E191E024D982E33F
:10176000A9D88CCE8EE790E06BE770E040E022E4F1
:1017700002E434E4E32E50E4C52E7BD7CE01039679
:101780003BD7D9C18EE790E06BE770E040E024E4FE
:1017900004E4B1E4EB2E10E4C12E6BD781E890E0B5
:1017A0002BD7809181008B3F20F081E080938100D6
:1017B00004C0823010F01092810080917B00882359
:1017C00009F0BDC181E063E0D5D880918100882314
:1017D00019F080EF90E002C086EF90E0E4D887E255
:1017E00091E034CD8EE790E06BE770E041E020E4DB
:1017F00000E6A1E5EA2ECC243CD780917B0088232B
:1018000061F460E0B7D88BE391E0CDD886E091E059
:10181000CAD881E063E0AED82BC089818093820072
:1018200025C18EE790E06BE770E040E021E501E53F
:10183000E1E5EE2EF0E5CF2E1CD7CE010196DCD6E9
:1018400089818B3F18F081E0898303C0823008F0E2
:10185000198280917B00882309F071C160E08AD8E9
:1018600080E228D881E060E085D88BE391E09BD8C6
:10187000298130E0C90163E0880F991F6A95E1F77B
:10188000821B930B845C9F4FE1CC8EE790E06BE76B
:1018900070E041E020E500E751E6E52ECC24E9D6F2
:1018A00080917B00882309F0E1C060E063D88BE37E
:1018B00091E079D88BEF90E0C9CC8EE790E06BE7B0
:1018C00070E040E021E601E612E6E12E30E6C32EAC
:1018D000D0D686E890E090D6809186008B3F20F0AD
:1018E00087E18093860004C0883110F01092860052
:1018F00080E060E03FD880E2DDD781E063E03AD865
:1019000085EC90E050D8809186001AE0612F0FD3CB
:10191000805DD0D78091860084C08EE790E06BE731
:1019200070E040E022E602E6A3E6EA2EB0E6CB2E27
:10193000A0D685E890E060D6809185008B3F28F0A6
:10194000809186008093850006C09091860098174C
:1019500010F41092850081E063E00CD88BEB90E0EE
:1019600022D8809185001AE0612FE1D2805DA2D754
:101970008091850028C08EE790E06BE770E040E042
:1019800023E603E6E4E6EE2EF0E6CF2E72D688E8F4
:1019900090E032D681E063E0EDD781EB90E003D8B0
:1019A0008091880014E6612FC2D2805D83D7809138
:1019B0008800612FBCD2892F1AE0612FB8D2805DD8
:1019C00079D780918800612FB2D2892F805D72D73C
:1019D00080E22BC08EE790E06BE770E040E024E609
:1019E00004E631E6E32E50E6C52E43D687E890E0C4
:1019F00003D681E063E0BED787EA90E0D4D7809138
:101A00008700612F94D2805D55D780918700612F28
:101A10008ED2892F1AE0612F8AD2805D4BD78091B8
:101A20008700612F84D2892F805D44D787E291E0BF
:101A3000BAD780917B00882309F484C081C08EE7E7
:101A400090E06BE770E041E020E600E111E7E12E75
:101A5000CC240FD680917B00882341F460E08AD7A4
:101A60008BE391E0A0D785ED90E0F0CB4FD667C037
:101A70008EE790E06BE770E040E021E701E7A2E746
:101A8000EA2EB0E7CB2EF5D583E890E0B5D580916E
:101A900083008B3F20F086E08093830004C0873072
:101AA00010F01092830080E060E064D780E202D7FB
:101AB00081E063E05FD785ED90E075D787E991E03D
:101AC00072D7809183006AE032D2892F805DF2D68E
:101AD00087E291E068D72FC08EE790E06BE770E077
:101AE00040E021E701E7E1E7EE2EF0E7CF2EC1D598
:101AF00084E890E081D5809184008B3F20F084E1E0
:101B00008093840004C0853110F01092840081E03D
:101B100063E030D78EE990E046D7809184001AE0E8
:101B2000612F05D2805DC6D680918400612FFFD1E0
:101B3000892F805DBFD680917B00882319F00AD75A
:101B400010927B0080917900882309F049C0909120
:101B5000910080918600981730F420919100909127
:101B600085002917C8F5909185008917A9F184B1DE
:101B700095B1EF2DF0E0EE0FFF1F21E030E02C0FCC
:101B80003D1FE20FF31F95838483F3943FE0F3221C
:101B9000FE01359640E080E090E021913191820F86
:101BA000931F4F5F4031C9F745E0969587954A9559
:101BB000E1F78F3F910509F040F42091880030E073
:101BC0008217930720F4C90102C08FEF90E090E0E4
:101BD0009BBD8ABD369A04C08FEF90E09BBD8ABD45
:101BE0009A81992339F48B81882391F48C818823FD
:101BF00079F442C0D5018C91890F8C938B3F18F0FA
:101C00008BE38C9304C08C3310F0F50110821A82A0
:101C10009B819923A1F0D50111968C911197890F81
:101C200011968C9311978B3F28F08BE311968C9330
:101C3000119704C08C3310F0F50111821B829C8136
:101C40009923A1F0D50112968C911297890F1296C3
:101C50008C9312978B3F28F087E112968C93129702
:101C600004C0883110F0F50112821C828FE890E0E8
:101C700024D78FE890E053D780917E00807F803119
:101C800059F080917E00807F803331F080917E001A
:101C9000807F803409F0E2C080917E0090E08F70F8
:101CA0009070009781F080917E008F70813059F0A4
:101CB00080917E008F70823031F080917E008F7035
:101CC000833009F0CBC081E063E054D680917D0081
:101CD000813228F080917E008F70813089F0809170
:101CE0007E0090E08F709070009751F080917E00A0
:101CF0008F70823029F080917E008F708330B9F52B
:101D000090918900D50112968C911297992301F137
:101D10008093780080917800882311F48CE007C0CC
:101D2000809178008D3028F0809178008C508093DD
:101D30007800809178008A3030F0809178006AE0F5
:101D4000F6D0805D01C080E2B5D5809178000AC0F0
:101D50008A3020F06AE0EBD0805D01C080E2AAD535
:101D6000F50182816AE0E3D0892F805D03C080E2C3
:101D7000A1D580E29FD58AE39DD580917D008132F7
:101D800028F080917E008F70823089F080917E00F3
:101D900090E08F709070009751F080917E008F706E
:101DA000813029F080917E008F70833079F4D501E5
:101DB00011968C911AE0612FBAD0805D7BD5F50128
:101DC0008181612FB4D0892F805D03C080E272D5FC
:101DD00080E270D58AE36ED580917D00813228F053
:101DE00080917E008F70833089F080917E0090E03A
:101DF0008F709070009751F080917E008F708130CD
:101E000029F080917E008F70823071F4D5018C9121
:101E10001AE0612F8CD0805D4DD5F5018081612F56
:101E200086D0892F805D03C080E244D580E242D510
:101E300080918900882379F080E23CD5D501129603
:101E40008C91129781508C3018F08DE091E005C094
:101E500080E191E002C087E291E0A5D580917E000B
:101E6000823051F080917E00803208F45EC0809113
:101E70007E00803308F059C081E063E07BD580911B
:101E80007D00813220F480917E00833279F0809150
:101E900099001AE0612F4BD0805D0CD5809199009C
:101EA000612F45D0892F805D05D503C08BE991E076
:101EB0007AD58DE2FFD480917D00813220F480912B
:101EC0007E00823279F080919A001AE0612F2FD043
:101ED000805DF0D480919A00612F29D0892F805D98
:101EE000E9D403C08EE991E05ED58DE2E3D4809120
:101EF0007D00813220F480917E00813299F082E36E
:101F0000D9D480E3D7D480919B001AE0612F0FD001
:101F1000805DD0D480919B00612F09D0892F805D96
:101F2000C9D403C087E291E03ED5000029C7991BC0
:101F300079E004C0991F961708F0961B881F7A95C0
:101F4000C9F78095089587FB082E062687FD8195A1
:101F500067FD6195ECDF0EF4919507FC819508957E
:101F6000E199FECF9FBB8EBBE09A99278DB3089570
:101F7000A8E1B0E042E050E00FC0262FE199FECF8B
:101F80009FBB8EBB2DBB0FB6F894E29AE19A0FBEB1
:101F900001960895DC01CB01FC01E199FECF06C05A
:101FA000FFBBEEBBE09A31960DB20D92415050400E
:081FB000B8F70895F894FFCF83
:101FB8003C00330002000000330001000000330041
:041FC8000000000015
:00000001FF
